{
  "contractName": "Account",
  "abi": [
    {
      "constant": true,
      "inputs": [],
      "name": "balance",
      "outputs": [
        {
          "name": "",
          "type": "uint256"
        }
      ],
      "payable": false,
      "stateMutability": "view",
      "type": "function",
      "signature": "0xb69ef8a8"
    },
    {
      "inputs": [],
      "payable": false,
      "stateMutability": "nonpayable",
      "type": "constructor",
      "signature": "constructor"
    },
    {
      "constant": false,
      "inputs": [
        {
          "name": "amount",
          "type": "uint256"
        }
      ],
      "name": "deposit",
      "outputs": [],
      "payable": false,
      "stateMutability": "nonpayable",
      "type": "function",
      "signature": "0xb6b55f25"
    },
    {
      "constant": false,
      "inputs": [
        {
          "name": "amount",
          "type": "uint256"
        }
      ],
      "name": "withdraw",
      "outputs": [],
      "payable": false,
      "stateMutability": "nonpayable",
      "type": "function",
      "signature": "0x2e1a7d4d"
    }
  ],
  "bytecode": "0x60806040526000805534801561001457600080fd5b50610192806100246000396000f3fe6080604052600436106100565763ffffffff7c01000000000000000000000000000000000000000000000000000000006000350416632e1a7d4d811461005b578063b69ef8a814610087578063b6b55f25146100ae575b600080fd5b34801561006757600080fd5b506100856004803603602081101561007e57600080fd5b50356100d8565b005b34801561009357600080fd5b5061009c610155565b60408051918252519081900360200190f35b3480156100ba57600080fd5b50610085600480360360208110156100d157600080fd5b503561015b565b60005481111561014957604080517f08c379a000000000000000000000000000000000000000000000000000000000815260206004820152601e60248201527f4163636f756e742068617320696e73756666696369656e742066756e64730000604482015290519081900360640190fd5b60008054919091039055565b60005481565b60008054909101905556fea165627a7a72305820a611537e9725c5e6c7e0ded8296b4fc900ea9e981b65615e5c141c29828923bf0029",
  "source": "pragma solidity ^0.5.0;\r\n\r\ncontract Account {\r\n  uint256 public balance = 0;\r\n\r\n  constructor() public {\r\n  }\r\n\r\n  function deposit (uint amount) public {\r\n    balance += amount;\r\n  }\r\n\r\n  function withdraw (uint amount) public {\r\n    require(balance >= amount, \"Account has insufficient funds\");\r\n    balance -= amount;\r\n  }\r\n}\r\n",
  "sourcePath": "C:/Users/Flak/Documents/Dev/eth/contracts/Account.sol",
  "compiler": {
    "name": "solc",
    "version": "0.5.0+commit.1d4f565a.Emscripten.clang"
  },
  "schemaVersion": "3.0.1",
  "updatedAt": "2022-02-01T06:41:53.761Z",
  "devdoc": {
    "methods": {}
  },
  "userdoc": {
    "methods": {}
  }
}